{
  "_format": "hh-sol-artifact-1",
  "contractName": "MarketListing",
  "sourceName": "contracts/MarketListing.sol",
  "abi": [
    {
      "anonymous": false,
      "inputs": [
        {
          "indexed": true,
          "internalType": "uint256",
          "name": "itemId",
          "type": "uint256"
        },
        {
          "indexed": true,
          "internalType": "uint256",
          "name": "tokenId",
          "type": "uint256"
        },
        {
          "indexed": false,
          "internalType": "uint256",
          "name": "price",
          "type": "uint256"
        },
        {
          "indexed": true,
          "internalType": "address",
          "name": "nftContract",
          "type": "address"
        },
        {
          "indexed": false,
          "internalType": "address",
          "name": "seller",
          "type": "address"
        },
        {
          "indexed": false,
          "internalType": "address",
          "name": "owner",
          "type": "address"
        },
        {
          "indexed": false,
          "internalType": "bool",
          "name": "sold",
          "type": "bool"
        }
      ],
      "name": "MarketItemCreated",
      "type": "event"
    },
    {
      "inputs": [
        {
          "internalType": "address",
          "name": "_nftContract",
          "type": "address"
        },
        {
          "internalType": "uint256",
          "name": "_itemId",
          "type": "uint256"
        }
      ],
      "name": "closeMarketItem",
      "outputs": [],
      "stateMutability": "payable",
      "type": "function"
    },
    {
      "inputs": [
        {
          "internalType": "address",
          "name": "_nftContract",
          "type": "address"
        },
        {
          "internalType": "uint256",
          "name": "_tokenId",
          "type": "uint256"
        },
        {
          "internalType": "uint256",
          "name": "_price",
          "type": "uint256"
        }
      ],
      "name": "createMarketItem",
      "outputs": [],
      "stateMutability": "payable",
      "type": "function"
    },
    {
      "inputs": [],
      "name": "getAllMarketItems",
      "outputs": [
        {
          "components": [
            {
              "internalType": "uint256",
              "name": "itemId",
              "type": "uint256"
            },
            {
              "internalType": "uint256",
              "name": "tokenId",
              "type": "uint256"
            },
            {
              "internalType": "uint256",
              "name": "price",
              "type": "uint256"
            },
            {
              "internalType": "address",
              "name": "nftContract",
              "type": "address"
            },
            {
              "internalType": "address payable",
              "name": "seller",
              "type": "address"
            },
            {
              "internalType": "address payable",
              "name": "owner",
              "type": "address"
            },
            {
              "internalType": "bool",
              "name": "sold",
              "type": "bool"
            }
          ],
          "internalType": "struct MarketListing.MarketItem[]",
          "name": "",
          "type": "tuple[]"
        }
      ],
      "stateMutability": "view",
      "type": "function"
    },
    {
      "inputs": [],
      "name": "listingPrice",
      "outputs": [
        {
          "internalType": "uint256",
          "name": "",
          "type": "uint256"
        }
      ],
      "stateMutability": "view",
      "type": "function"
    }
  ],
  "bytecode": "0x6080604052662386f26fc1000060025534801561001b57600080fd5b506001600081905550610f00806100336000396000f3fe60806040526004361061003f5760003560e01c8063038cdc0e1461004457806358eb2df514610060578063c78f19f91461007c578063f16d376c146100a7575b600080fd5b61005e6004803603810190610059919061088f565b6100d2565b005b61007a600480360381019061007591906108cf565b61012c565b005b34801561008857600080fd5b5061009161048a565b60405161009e9190610be6565b60405180910390f35b3480156100b357600080fd5b506100bc610490565b6040516100c99190610b54565b60405180910390f35b60026000541415610118576040517f08c379a000000000000000000000000000000000000000000000000000000000815260040161010f90610bc6565b60405180910390fd5b600260008190555060016000819055505050565b60026000541415610172576040517f08c379a000000000000000000000000000000000000000000000000000000000815260040161016990610bc6565b60405180910390fd5b6002600081905550600081116101bd576040517f08c379a00000000000000000000000000000000000000000000000000000000081526004016101b490610ba6565b60405180910390fd5b6101c760016106fb565b60006101d36001610711565b90506102146040518060400160405280601f81526020017f63726561746564206d61726b6574206974656d20776974682069643a202573008152508261071f565b6040518060e001604052808281526020018481526020018381526020018573ffffffffffffffffffffffffffffffffffffffff1681526020013373ffffffffffffffffffffffffffffffffffffffff168152602001600073ffffffffffffffffffffffffffffffffffffffff168152602001600015158152506003600083815260200190815260200160002060008201518160000155602082015181600101556040820151816002015560608201518160030160006101000a81548173ffffffffffffffffffffffffffffffffffffffff021916908373ffffffffffffffffffffffffffffffffffffffff16021790555060808201518160040160006101000a81548173ffffffffffffffffffffffffffffffffffffffff021916908373ffffffffffffffffffffffffffffffffffffffff16021790555060a08201518160050160006101000a81548173ffffffffffffffffffffffffffffffffffffffff021916908373ffffffffffffffffffffffffffffffffffffffff16021790555060c08201518160050160146101000a81548160ff0219169083151502179055509050508373ffffffffffffffffffffffffffffffffffffffff166323b872dd3330866040518463ffffffff1660e01b81526004016103f393929190610b1d565b600060405180830381600087803b15801561040d57600080fd5b505af1158015610421573d6000803e3d6000fd5b505050508373ffffffffffffffffffffffffffffffffffffffff1683827f9d845d13dc367018dfeeeefd595ee78d3ce36122a154f401f4811cf7044cf8c885336000806040516104749493929190610c01565b60405180910390a4506001600081905550505050565b60025481565b6060600061049e6001610711565b90506104df6040518060400160405280600f81526020017f746f74616c206974656d733a20257300000000000000000000000000000000008152508261071f565b60008167ffffffffffffffff8111156104fb576104fa610e05565b5b60405190808252806020026020018201604052801561053457816020015b6105216107e4565b8152602001906001900390816105195790505b5090506000600190505b828110156106f2576000600360008381526020019081526020016000206000015490506000600360008381526020019081526020016000209050806040518060e00160405290816000820154815260200160018201548152602001600282015481526020016003820160009054906101000a900473ffffffffffffffffffffffffffffffffffffffff1673ffffffffffffffffffffffffffffffffffffffff1673ffffffffffffffffffffffffffffffffffffffff1681526020016004820160009054906101000a900473ffffffffffffffffffffffffffffffffffffffff1673ffffffffffffffffffffffffffffffffffffffff1673ffffffffffffffffffffffffffffffffffffffff1681526020016005820160009054906101000a900473ffffffffffffffffffffffffffffffffffffffff1673ffffffffffffffffffffffffffffffffffffffff1673ffffffffffffffffffffffffffffffffffffffff1681526020016005820160149054906101000a900460ff1615151515815250508484815181106106d2576106d1610dd6565b5b6020026020010181905250505080806106ea90610d5e565b91505061053e565b50809250505090565b6001816000016000828254019250508190555050565b600081600001549050919050565b6107b78282604051602401610735929190610b76565b6040516020818303038152906040527f9710a9d0000000000000000000000000000000000000000000000000000000007bffffffffffffffffffffffffffffffffffffffffffffffffffffffff19166020820180517bffffffffffffffffffffffffffffffffffffffffffffffffffffffff83818316178352505050506107bb565b5050565b60008151905060006a636f6e736f6c652e6c6f679050602083016000808483855afa5050505050565b6040518060e00160405280600081526020016000815260200160008152602001600073ffffffffffffffffffffffffffffffffffffffff168152602001600073ffffffffffffffffffffffffffffffffffffffff168152602001600073ffffffffffffffffffffffffffffffffffffffff1681526020016000151581525090565b60008135905061087481610e9c565b92915050565b60008135905061088981610eb3565b92915050565b600080604083850312156108a6576108a5610e34565b5b60006108b485828601610865565b92505060206108c58582860161087a565b9150509250929050565b6000806000606084860312156108e8576108e7610e34565b5b60006108f686828701610865565b93505060206109078682870161087a565b92505060406109188682870161087a565b9150509250925092565b600061092e8383610a71565b60e08301905092915050565b61094381610cf5565b82525050565b61095281610cad565b82525050565b61096181610c9b565b82525050565b61097081610c9b565b82525050565b600061098182610c56565b61098b8185610c79565b935061099683610c46565b8060005b838110156109c75781516109ae8882610922565b97506109b983610c6c565b92505060018101905061099a565b5085935050505092915050565b6109dd81610cbf565b82525050565b6109ec81610cbf565b82525050565b60006109fd82610c61565b610a078185610c8a565b9350610a17818560208601610d2b565b610a2081610e39565b840191505092915050565b6000610a38601383610c8a565b9150610a4382610e4a565b602082019050919050565b6000610a5b601f83610c8a565b9150610a6682610e73565b602082019050919050565b60e082016000820151610a876000850182610aff565b506020820151610a9a6020850182610aff565b506040820151610aad6040850182610aff565b506060820151610ac06060850182610958565b506080820151610ad36080850182610949565b5060a0820151610ae660a0850182610949565b5060c0820151610af960c08501826109d4565b50505050565b610b0881610ceb565b82525050565b610b1781610ceb565b82525050565b6000606082019050610b326000830186610967565b610b3f6020830185610967565b610b4c6040830184610b0e565b949350505050565b60006020820190508181036000830152610b6e8184610976565b905092915050565b60006040820190508181036000830152610b9081856109f2565b9050610b9f6020830184610b0e565b9392505050565b60006020820190508181036000830152610bbf81610a2b565b9050919050565b60006020820190508181036000830152610bdf81610a4e565b9050919050565b6000602082019050610bfb6000830184610b0e565b92915050565b6000608082019050610c166000830187610b0e565b610c23602083018661093a565b610c306040830185610967565b610c3d60608301846109e3565b95945050505050565b6000819050602082019050919050565b600081519050919050565b600081519050919050565b6000602082019050919050565b600082825260208201905092915050565b600082825260208201905092915050565b6000610ca682610ccb565b9050919050565b6000610cb882610ccb565b9050919050565b60008115159050919050565b600073ffffffffffffffffffffffffffffffffffffffff82169050919050565b6000819050919050565b6000610d0082610d07565b9050919050565b6000610d1282610d19565b9050919050565b6000610d2482610ccb565b9050919050565b60005b83811015610d49578082015181840152602081019050610d2e565b83811115610d58576000848401525b50505050565b6000610d6982610ceb565b91507fffffffffffffffffffffffffffffffffffffffffffffffffffffffffffffffff821415610d9c57610d9b610da7565b5b600182019050919050565b7f4e487b7100000000000000000000000000000000000000000000000000000000600052601160045260246000fd5b7f4e487b7100000000000000000000000000000000000000000000000000000000600052603260045260246000fd5b7f4e487b7100000000000000000000000000000000000000000000000000000000600052604160045260246000fd5b600080fd5b6000601f19601f8301169050919050565b7f43616e277420736574207072696365203e203000000000000000000000000000600082015250565b7f5265656e7472616e637947756172643a207265656e7472616e742063616c6c00600082015250565b610ea581610c9b565b8114610eb057600080fd5b50565b610ebc81610ceb565b8114610ec757600080fd5b5056fea2646970667358221220bec0c3c1c3593ac932e3877e47b7d609c96299abd4b6e80c5af5a007981c3dc264736f6c63430008070033",
  "linkReferences": {},
  "deployedLinkReferences": {}
}